:100000000C942A000C943C000C943C000C943C0092
:100010000C943C000C943C000C943C000C943C0070
:100020000C943C000C943C000C943C000C943C0060
:100030000C943C000C943C000C943C000C943C0050
:100040000C943C000C943C000C943C000C94430039
:100050000C943C0011241FBECFE5D8E0DEBFCDBF1D
:1000600020E0A0E6B0E001C01D92A136B207E1F7A2
:100070000E9481000C949B000C94000080E282B9E5
:1000800084E486BF08951F920F920FB60F92112439
:100090002F933F934F935F936F937F938F939F9390
:1000A000AF93BF93EF93FF9381B1803841F0883ACB
:1000B00079F0803699F486B7846C86BF0FC083B11F
:1000C000809360000E94970086B7846C86BF06C04C
:1000D0008091600083B986B7846C86BF85EC86BF4B
:1000E000FF91EF91BF91AF919F918F917F916F9110
:1000F0005F914F913F912F910F900FBE0F901F90E6
:1001000018950E9489000E943E00789485EC86BF75
:10011000FFCF1BB81AB810BC599A8AB188618AB946
:1001200080B58E6080BD87E689B910BC08955D9B5F
:0A013000FECF8CB90895F894FFCFBC
:00000001FF
